:020000040800F2
:10000000080600204501000893020008610200086C
:1000100091020008B1010008650700080000000017
:100020000000000000000000000000000D040008B7
:10003000B30100080000000041030008A504000807
:100040005F0100085F0100085F0100085F01000810
:100050005F0100085F0100085F0100085F01000800
:100060005F0100085F0100085F0100085F010008F0
:100070005F0100085F0100085F0100085F010008E0
:100080005F0100085F0100085F0100085F010008D0
:100090005F0100085F0100085F0100085F010008C0
:1000A0005F0100085F0100085F0100085F010008B0
:1000B000F90400085F0100085F0100085F01000803
:1000C0005F0100085F0100085F0100085F01000890
:1000D0005F010008050600085F0100085F010008D5
:1000E0005F0100085F0100085F0100085F01000870
:1000F0005F0100085F0100085F0100085F01000860
:100100005F0100085F0100085F0100085F0100084F
:100110005F0100085F0100085F0100085F0100083F
:100120005F0100085F0100085F0100085F0100082F
:10013000DFF80CD000F02AF80048004759100008FA
:10014000080600200648804706480047FEE7FEE70D
:10015000FEE7FEE7FEE7FEE7FEE7FEE7FEE7FEE777
:10016000A90400083101000840EA01039B070AD1F5
:1001700002E008C9121F08C0042AFAD203E011F8ED
:10018000013B00F8013B521EF9D27047064C074D67
:1001900006E0E06840F0010394E807009847103457
:1001A000AC42F6D3FFF7C8FF9C170008BC17000845
:1001B000FEE7704772B6704762B67047F0B5CC780C
:1001C000002204F00F03E40601D58C7823430C8849
:1001D0004FF00F0C14F0FF0F4FF0010E1AD006680D
:1001E0000D880EFA02F42540A5420FD195000CFAB5
:1001F00005F726EA070703FA05F6CD783E43282DD2
:1002000001D1446102E0482D00D10461521C082A4A
:10021000E6D306600A88FF2A1DD94668002202F14B
:1002200008050EFA05F40D882540A5420FD195006A
:100230000CFA05F726EA070703FA05F6CD783E43E0
:10024000282D00D14461CD78482D00D10461521C85
:10025000082AE4D34660F0BD4161704701617047F0
:10026000FEE7000008B50121102000F077F83F20DC
:10027000ADF8000010208DF8030003208DF8020077
:1002800069460248FFF79AFF08BD000000100140D0
:10029000FEE7704738B51C208DF8000000258DF86A
:1002A000015001248DF802408DF80340684600F0AB
:1002B0000EF825208DF800008DF8015002208DF8F1
:1002C00002008DF80340684600F001F838BD70B5B3
:1002D0000F24C27801784FF0E0230126E2B1D3F871
:1002E0000C2D194402F4E062C2F5E062120AC2F178
:1002F0000405D4404278AA408578254015432A0158
:1003000081F80024007800F01F018E40400903EBC3
:100310008000C0F8006170BD01F01F0086404809F0
:1003200003EB8000C0F8806170BD00000249084303
:1003300002490860704700000000FA050CED00E07B
:1003400070470000044A0029D16901D0014300E050
:100350008143D1617047000000100240044A002927
:10036000916901D0014300E0814391617047000031
:100370000010024010B5214A5168214B11F00C01C8
:1003800003D0042901D0082901D0036012E051688C
:10039000536801F470114FF0020413F4803F04EB32
:1003A000914102D053689B0301D5164B00E0144BDA
:1003B000594301605168144B01F0F00109095C5C7C
:1003C0000168E1404160546804F4E064240A1C5D63
:1003D00021FA04F48460546804F46054E40A1B5D58
:1003E000D940C1605268084B02F44042920B1B1F77
:1003F0009A5CB1FBF2F1016110BD000000100240F7
:1004000000127A0000093D0004000020704700003F
:10041000224900200A6842F480320A604FF4A06347
:100420000A6800F1010012F4003F01D19842F7D1AF
:100430000868800330D51A48026842F01002026052
:10044000026822F003020260026842F002020260C7
:100450004868486048684860486840F48060486080
:10046000486820F47C104860486840F4E810486010
:10047000086840F08070086008688001FCD5486812
:1004800020F003004860486840F002004860486877
:10049000C0F381000228FAD170470000001002402A
:1004A000002002407047000010B50F48016841F07D
:1004B0000101016041680D4A1140416001680C4A28
:1004C00011400160016821F480210160416821F43C
:1004D000FE0141604FF41F018160FFF799FF05495C
:1004E0004FF00060086010BD001002400000FFF8EF
:1004F000FFFFF6FE08ED00E000F0ECBDC94301820D
:1005000070470029018802D041F0010101E021F08B
:10051000010101807047002A828901D00A4300E06E
:100520008A438281704781847047000030B5028819
:100530001B4C1C4DA0420DD0A8420BD0B0F1804FF7
:1005400008D0194B984205D0184B984202D0184B4E
:10055000984203D122F070034A881A43154B9842FF
:1005600006D0154B984203D022F44073CA881A4330
:1005700002808A8882850A880285A0420AD0A84221
:1005800008D00E4A904205D00D4A904202D00D4A42
:10059000904201D1097A01860121818230BD00009B
:1005A000002C0140003401400004004000080040DD
:1005B000000C0040001000400014004000400140CA
:1005C000004401400048014010B50B4C40F2277137
:1005D000204600F02DF808B1084807E040F2255108
:1005E000204600F025F8002804D005480068BDE842
:1005F0001040004710BD00000038014058000020A6
:1006000054000020FFF7E0BFC94301807047002974
:10061000818902D041F4005101E021F4005181812F
:1006200070470246128800200A4200D0012070471D
:1006300030B501F01F0201250024C1F3421305FA71
:1006400002F2012B01D1838904E0022B01D1038A3C
:1006500000E0838A4FEA11210088134205FA01F570
:1006600000EA050001D000B10124204630BD10B5DC
:10067000C1F3421301F01F040121A140012B01D15C
:100680000C3004E0022B01D1103000E01430002ABD
:10069000026801D00A4300E08A43026010BD0000F6
:1006A00030B50446008A85B00D464CF6FF7108400F
:1006B000E98801432182A0894EF6F3110840A988F8
:1006C0002A8911436A8902431143A181A08A4FF606
:1006D000FF410840A9890143A1826846FFF74AFE0D
:1006E0001B48844201D1039800E00298A1890904C3
:1006F000002900EBC00101EB0010296802DA4FEA83
:10070000410101E04FEA8101B0FBF1F06422B0FB4E
:10071000F2F14FEA01114FEA11136FF018056B4324
:1007200000EB8300A3891D044FF0320306D503EBD1
:10073000C000B0FBF2F000F0070005E003EB001092
:10074000B0FBF2F000F00F000843208105B030BD8F
:10075000003801408088C0F308007047C1F30801E9
:1007600081807047FEE702E008C8121F08C1002A16
:10077000FAD170477047002001E001C1121F002A22
:10078000FBD170472DE9F0410D4616461F46002467
:10079000FFF710FD0B490A20C8703B46072231467F
:1007A000284600F0FBFD012805D144F6206000F04A
:1007B00069FE012800D00324FFF7FEFC2046BDE8B7
:1007C000F0810000140000202DE9F0410646884623
:1007D00017460024FFF7EEFC0C4DA88803280ED323
:1007E000A988A86800F068FC48B9A86810F8011B3F
:1007F0003170A988891E3980C8F8000000E00524FE
:10080000FFF7DAFC2046BDE8F0810000140000206C
:100810002DE9F04707460D4691460026FFF7CAFC32
:10082000124C6078D8B96D1E4FF00108E56028467B
:10083000A4F806802F70E28802EB0901E180E188CC
:1008400000F03AFCE188A2680A44491CE18010707B
:1008500084F800800121002000F05AFC00E0052609
:10086000FFF7AAFC3046BDE8F08700001400002026
:1008700010B5FFF79FFC0021012000F049FC05495D
:1008800000204870FFF798FCBDE81040002000F001
:100890006DBD00001400002010B5FFF78BFC002197
:1008A000084600F035FC00F04DFCBDE81040FFF7B5
:1008B00083BC000070B5064D00242878012804D1BF
:1008C000286980470020287000E00624204670BD7B
:1008D0003400002070B50C4609880026052925D172
:1008E00041788278057942EA0122521C91B26A1E4F
:1008F0007C2A1BD800222280132202702288002327
:10090000521C22806A0000F8012F2288401C521CD1
:1009100022802A4600F068FB18B100F0B4FB0646BE
:1009200005E0208800EB4500208000E003263046EB
:1009300070BD70B50C460988002605292ED1417876
:10094000827840F2CF7542EA0122521C91B2C278FD
:10095000130202791A43531EAB421FD20023238095
:10096000012300F8013B25886D1C2580550702D026
:1009700003EBD20300E0D308DDB200F8015B23886B
:100980005B1C2380002300F0FFFA18B100F07BFB12
:10099000064604E020882844208000E003263046F4
:1009A00070BD70B50C460988002605292ED1417806
:1009B000827840F2CF7542EA0122521C91B2C2788D
:1009C000130202791A43531EAB421FD20023238025
:1009D000022300F8013B23885B1C2380530703D0CC
:1009E000012303EBD20300E0D308DDB200F8015B82
:1009F00023885B1C238000F0DFFA18B100F043FB72
:100A0000064604E020882844208000E00326304683
:100A100070BD70B50C4609880026052925D141789E
:100A20008278057942EA0122521C91B26A1E7C2A20
:100A30001BD8002222800322027022880023521C2D
:100A400022806A0000F8012F2288401C521C22805C
:100A50002A4600F0C9FA18B100F015FB064605E079
:100A6000208800EB4500208000E00326304670BD62
:100A700070B50C4609880026052927D1417882786F
:100A8000057942EA0122521C91B2C27845EA022558
:100A90006A1E7C2A1AD20022228004220270228836
:100AA000521C22806A0000F8012F2288401C521C30
:100AB00022802A4600F0B8FA18B100F0E4FA06469F
:100AC00005E0208800EB4500208000E0032630464A
:100AD00070BD2DE9F0410446088800270D460A281C
:100AE00043D36078A178267941EA0021E078491C57
:100AF0001FFA81F846EA00266079A179227A41EA54
:100B00000021E079491C42EA0022607A731E89B212
:100B10007C2B29D842B3792A26D8B0EB420F23D1B7
:100B2000012304F10A0000F05FFAC8B90020288010
:100B30001720207028880023401C2880700004F8AB
:100B4000010F2888641C401C2880324641462046FC
:100B500000F04AFA20B9288800EB4600288004E01B
:100B600000F091FA074600E003273846BDE8F0811F
:100B700070B5064C0D4622880549401CFFF7F4FA73
:100B80002088401C2880002070BD00002400002028
:100B9000E800002038B509880024052921D14178D2
:100BA000827842EA0122521C91B20279CAB9C27813
:100BB000FF2A00D0AAB900228DF80120C078FF28B2
:100BC00003D101208DF8000001E08DF80020012301
:100BD0001A46684600F0D8F920B100F054FA0446ED
:100BE00000E00324204638BD10B5098800240529FB
:100BF0000FD141788278012342EA0122521C91B23E
:100C00001A46C01C00F0F0F920B100F03CFA04468E
:100C100000E00324204610BD2DE9F0410D4609886F
:100C20000024052924D941788278467942EA0122B4
:100C3000521C91B2C278130202791A43530703D0AF
:100C4000012303EBD20300E0D308571EDBB2B7F554
:100C5000F66F0DD2B3420BD10123801D00F094F941
:100C600018B100F010FA044603E00520288000E0E7
:100C700003242046BDE8F08170B50D4609880024A4
:100C800006291DD34178827842EA0122521C91B292
:100C9000C278130202791A434379561E772E0FD871
:100CA0005606360E9E420BD10123801D00F09CF9A2
:100CB00018B100F0E8F9044603E00520288000E0C0
:100CC0000324204670BD000070B5064610461A4643
:100CD000049B002935D0F72933D81D4D29710021F7
:100CE000DEB1012E2DD11B4C2C611B4C6C611B4CB9
:100CF000EC601B4CC5E906411A4929621A49696230
:100D00001A49A96201462879FFF73CFD04001DD16C
:100D100000F024FBB8B9032418E0154C2C61154CE5
:100D20006C61154CEC60154CC5E90641144929620B
:100D3000144969621449A9620146287900F080F8D3
:100D4000E4E7022402E06E7101202870204670BDA5
:100D500034000020710800089908000811080008F4
:100D6000C9070008A51100089D1200087D1200089F
:100D7000490F00086D0F0008D90E00088D0E0008FD
:100D8000C51400084D1500082515000838B52B4C72
:100D9000207808B1062038BD684600F0D1FA012855
:100DA00049D19DF80000002845D001280BD0022829
:100DB00041D1A068214D0178A1700121E17000218D
:100DC0002C35A3780FE01D4AA369921D911CC81F02
:100DD000984780BB60782179884200D058BB0220B8
:100DE00000F0C4FA27E015F8312062B19A4207D129
:100DF00005EBC1014A681149891D9047E07002E086
:100E0000491C1029EFDB6078A8B1E27872B10020AC
:100E1000E080A07840F08001A0680170E188491C62
:100E200089B2E1804254E088401CE080D4E902139A
:100E3000E28820799847002038BD00003400002067
:100E40002DE9F0410E4615461F460024FFF7B2F982
:100E50003B4608222946304600F0A0FA01280DD171
:100E6000B5F5964F01D9232003E007496800B1FB8F
:100E7000F0F080B200F006FB012800D00324FFF759
:100E80009BF92046BDE8F081A07F17002DE9F041D5
:100E90000646884617460024FFF78CF90C4DA888B3
:100EA00004280FD3A9880B4800F01AF950B9094853
:100EB00000783070A888C01E38800648401CC8F8EA
:100EC000000000E00524FFF777F92046BDE8F08137
:100ED00028000020080100202DE9F04707460D46B4
:100EE00091460026FFF766F9154C6078012821D15C
:100EF0006D1E4FF00108A5602846A4F802802F70EF
:100F0000628802EB09016180618800F0E9F861887C
:100F10000C4A5318491C61801870010A6088024409
:100F2000401C6080117084F800800121002000F0D6
:100F3000EFF800E00526FFF73FF93046BDE8F087FF
:100F4000280000200801002010B5FFF733F90649FA
:100F5000002048700146012000F0DAF800F006F9A0
:100F6000BDE81040FFF728B92800002010B5FFF7B2
:100F700021F90021084600F0CBF800F0E3F8BDE8C5
:100F80001040FFF719B9000010B5094C0948A178C5
:100F900000294FF0080102D1FFF760F901E0FFF7E7
:100FA0005BF9A07880F00100A070012010BD000066
:100FB000E20000200010014010B5094C0948E1781A
:100FC00000294FF0100102D1FFF748F901E0FFF7C7
:100FD00043F9E07880F00100E070012010BD0000CE
:100FE000E2000020001001402DE9F0410C4D0646C2
:100FF000697800270B48002914464FF0040102D1FC
:10100000FFF72CF901E0FFF727F9687880F001007D
:10101000687004EB440030703846BDE8F081000091
:10102000E20000200010014070B5094C0025217835
:10103000084800294FF0020102D1FFF70FF901E043
:10104000FFF70AF9207880F001002070284670BD73
:10105000E20000200010014008B54FF4C060FFF727
:1010600065F9FFF717F9FFF7FDF800230093002259
:101070004FF4165302211046FFF726FEFFF71AFC25
:10108000FFF784FEFCE7002804D0012803D00728DE
:1010900003D10620704702207047042070470928BA
:1010A00001D8303004E0A0F10A01052902D8373018
:1010B000C0B2704730207047002203E010F8013BB7
:1010C0001A44D2B20B00A1F1010189B2F6D150420B
:1010D000C0B2704701480068004700005C00002073
:1010E00070B50A4DFF22144605F5807605E010F82C
:1010F000013B6340EC5C5440F25C0B00A1F1010148
:1011000089B2F4D144EA022070BD00009C150008A9
:1011100070B50C4672B60A4D40F2255108B1012255
:1011200000E000222846FFF7A2FA40F227710CB136
:10113000012200E000222846FFF799FA62B670BD4E
:101140000038014010B501218C0700222046FFF72E
:10115000E2F900212046FFF7D4F9BDE81040012153
:101160000148FFF779B800000010014010B50121D7
:101170008C072046FFF7C2F900212046FFF7D3F97C
:10118000012211462046FFF7C6F901212046FFF74C
:10119000B8F9BDE8104001210148FFF75FB8000031
:1011A00000100140F8B50027684600F0E7F8324D1E
:1011B000687800240126002852D001280ED0022889
:1011C00057D19DF80000E97888423FD1FFF7BAFF78
:1011D0006C70012000F0CAF807464AE0FFF7C6FF2E
:1011E0009DF800003A2802D1AC70AC8041E00D2897
:1011F00002D1022068703CE0A0F13001092901D839
:10120000C8B207E0A0F14101052902D83738C0B2C1
:1012100000E0FF20A97861B101292AD1AA88A96834
:1012200011440A7802430A70A888401CA880AC7058
:101230001FE0A988FF2905D8AA88A9680001885459
:10124000AE7016E06C70FFF77DFF12E03A2805D112
:10125000AC70AC806E70FFF789FF0AE06C7008E03C
:101260009DF800003A2804D1FFF780FFAC80AC70F5
:101270006E703846F8BD00001400002010B5064915
:101280004878012801D0022801D100204870FFF7DA
:1012900059FF002010BD00001400002070B5274C3D
:1012A000002620783546052845D2DFE800F04003C7
:1012B0000A3035003A2000F0D5F802202070A570E1
:1012C00039E0E088E8B1A1781C48C06881B1012903
:1012D00031D1007800F00F00FFF7E1FE00F0C2F816
:1012E000E068401CE060A570E088401EE08022E0DD
:1012F00000780009FFF7D3FE00F0B4F80120A070D9
:1013000019E00D2000F0AEF80320207013E0E07823
:1013100000F0A8F80420F8E72570032000F026F874
:10132000064600210120FFF7F3FE257003E00021AF
:101330000120FFF7EDFE304670BD000014000020D4
:10134000054902464B780020002B04D00878107025
:101350000020487001207047E00000200249002072
:101360004870012070470000E0000020024901227F
:101370004A70087010467047E000002070B5064DB6
:10138000044640F225512846FFF73EF92846FFF76C
:10139000E1F92070012070BD003801402DE9F047CF
:1013A0008946012586B092461C46294644F225000E
:1013B000FEF7D4FF18208DF817006802ADF814006E
:1013C000DFF8988003278DF8167005A94046FEF7D0
:1013D000F5FE48208DF81700AE02ADF814608DF8C8
:1013E000167005A94046FEF7E9FE0021CDF80490ED
:1013F0007CB1012C10D0022C01D1ADF80C6050460C
:10140000BAF1070F11D0082825D154B9ADF808104A
:101410000BE0ADF80C10F2E74FF4C060ADF80C0033
:10142000EDE74FF48050ADF8080072B60C200C4C7C
:10143000ADF80A10ADF81010ADF80E0001A9204665
:10144000FFF72EF901212046FFF7E1F862B62846A2
:1014500006B0BDE8F0870025F9E70000000801406C
:101460000038014010B5064C01462046FFF776F9DA
:1014700080212046FFF7D5F80028F9D0012010BDC3
:10148000003801403EB5044601210846FEF75AFFE8
:101490004FF47A7044433720ADF80000ADF80440B3
:1014A0000020ADF80600ADF802004FF08044694618
:1014B0002046FFF73BF801212046FFF71FF80120E7
:1014C0003EBD000038B500246846FFF757FF1349BA
:1014D000487830B1124A012807D0022810D00328DA
:1014E00001D1FFF743FE204638BD002088809DF8DB
:1014F000003088880244401C8880137002200BE072
:101500008888FF2807D89DF8003088880244401C4E
:1015100088801370E5E703204870E2E72800002088
:101520000801002070B5084D0024687810B1022829
:1015300003D10120FFF71AFF0446FFF703FE012045
:101540006870204670BD00002800002070B5124C65
:101550000025217871B101291BD1608878B1A0687C
:101560000078FFF77FFFA068401CA0606088401EE5
:1015700060800EE000210120FFF7CAFD09E0032092
:10158000FFF7F4FE054600210120FFF7C1FD002012
:101590002070284670BD00002800002000C1814056
:1015A00001C0804101C0804100C1814001C0804133
:1015B00000C1814000C1814001C0804101C0804123
:1015C00000C1814000C1814001C0804100C1814013
:1015D00001C0804101C0804100C1814001C0804103
:1015E00000C1814000C1814001C0804100C18140F3
:1015F00001C0804101C0804100C1814000C18140E3
:1016000001C0804101C0804100C1814001C08041D2
:1016100000C1814000C1814001C0804101C08041C2
:1016200000C1814000C1814001C0804100C18140B2
:1016300001C0804101C0804100C1814000C18140A2
:1016400001C0804101C0804100C1814001C0804192
:1016500000C1814000C1814001C0804100C1814082
:1016600001C0804101C0804100C1814001C0804172
:1016700000C1814000C1814001C0804101C0804162
:1016800000C1814000C1814001C0804100C1814052
:1016900001C0804101C0804100C1814000C0C10142
:1016A000C30302C2C60607C705C5C404CC0C0DCDD2
:1016B0000FCFCE0E0ACACB0BC90908C8D81819D942
:1016C0001BDBDA1A1EDEDF1FDD1D1CDC14D4D51572
:1016D000D71716D6D21213D311D1D010F03031F162
:1016E00033F3F23236F6F737F53534F43CFCFD3D92
:1016F000FF3F3EFEFA3A3BFB39F9F83828E8E92982
:10170000EB2B2AEAEE2E2FEF2DEDEC2CE42425E531
:1017100027E7E62622E2E323E12120E0A06061A1A1
:1017200063A3A26266A6A767A56564A46CACAD6D51
:10173000AF6F6EAEAA6A6BAB69A9A86878B8B979C1
:10174000BB7B7ABABE7E7FBF7DBDBC7CB47475B5F1
:1017500077B7B67672B2B373B17170B050909151E1
:101760009353529296565797559594549C5C5D9D11
:101770005F9F9E5E5A9A9B5B995958988848498901
:101780004B8B8A4A4E8E8F4F8D4D4C8C44848545B1
:10179000874746868242438341818040BC170008C8
:1017A00000000020E800000066070008A4180008F8
:1017B000E800002020050000760700080204060863
:1017C00000000000010203040102030406070809E7
:1017D00000000000000000000801002000000000E0
:1017E00000000000000000000000000000000000F9
:1017F00002000000000000000000000000000000E7
:1018000000000000000000000000000000000000D8
:1018100000000000000000000000000011000000B7
:10182000710B000804000000710A000803000000AA
:10183000130A000810000000790C000806000000E0
:10184000E90B000817000000D30A0008010000009F
:101850003309000805000000950B00080F00000088
:10186000190C000802000000A30900081300000082
:10187000D508000800000000000000000000000083
:101880000000000000000000000000000000000058
:101890000000000000000000000000000000000048
:0418A0000000000044
:0400000508000131BD
:00000001FF
